:1000000004010010CD000000C1000000C30000008A
:1000100000000000000000000000000000000000E0
:10002000000000000000000000000000C50000000B
:100030000000000000000000C7000000C900000030
:10004000CB000000CB00000000000000CB0000004F
:10005000CB000000CB00000000000000000000000A
:10006000CB000000CB000000A1010000CB0000008D
:10007000CB000000CB00000000000000CB0000001F
:100080000000000000000000000000000000000070
:100090000000000000000000000000000000000060
:1000A000CB000000CB000000CB000000CB00000024
:1000B000CB000000CB000000CB000000CB00000014
:1000C000FEE7FEE7FEE7FEE7FEE7FEE710B500F01D
:1000D000C1F8094A094B0A498B4207D30021094B51
:1000E000094A934205D300F031F8FEE701CA01C383
:1000F000F2E702C3F5E7C046B002000000000010BE
:10010000000000100000001004010010044B054A1C
:1001100041211A60E0224942520099507047C0467E
:1001200000C000400400FFFF10B500F025F80348B0
:1001300000F046F8FFF7EAFF10BDC046307500003A
:1001400010B50121112000F06FF810BD10B5FFF7B8
:10015000EBFF1124FFF7F4FF0121200000F06EF8FF
:10016000642000F05DF82000002100F067F83220E4
:1001700000F056F8F0E700004022074B191DC86F49
:100180000243CA675A6805490A405A608022596882
:10019000D2000A435A60704700800440FFFBFFFF13
:1001A0000122054BD968114204D0DA60034A136872
:1001B000013313607047C04600400040000000104B
:1001C00010B580240D4BE400191DCA6F2243CA6785
:1001D000802259689143596059680A435A60002245
:1001E000074B1A608022074B1206186019680A43F1
:1001F0001A6001229A60044B1C6010BD008004400C
:10020000000000100040004000E100E00022034B2D
:100210001A601A688242FCD37047C0460000001082
:1002200010B5FFF7F3FF10BDA0228023814010B569
:1002300012069B01D4582143D15010BD0123A022A6
:1002400083401206012903D1882189015350704748
:100250008A21FAE71249134AC86F134B0243CA674F
:1002600000221A6401325A64596C1142FCD02422D3
:100270008E2180209A6089005A5882435A50012268
:10028000D9681142FCD0032119675A670122596FBE
:100290001142FCD002229A670022044B1A61704777
:1002A00004800440800004000080044000000440FA
:00000001FF
